:100000000C942A000C9447000C9447000C94470071
:100010000C9447000C9447000C9447000C94470044
:100020000C9447000C9447000C9447000C94470034
:100030000C9447000C9447000C9447000C94470024
:100040000C9447000C9447000C9447000C94470014
:100050000C94470011241FBECFE5D4E0DEBFCDBF16
:1000600013E0A0E6B0E0E6ECFEE002C005900D92E1
:10007000A23EB107D9F713E0A2EEB3E001C01D9292
:10008000A63EB107E1F70E940F020C9461070C94A1
:100090000000DF93CF930F92CDB7DEB78983A5E33E
:1000A000B0E0E5E3F0E080818F778C93A5E3B0E0EA
:1000B000E5E3F0E080818F7B8C93EBE3F0E08981D6
:1000C0008083A5E3B0E0E5E3F0E0808182608C937B
:1000D00081E090E00E94E700A5E3B0E0E5E3F0E016
:1000E00080818D7F8C930F90CF91DF910895DF9366
:1000F000CF930F92CDB7DEB78983A5E3B0E0E5E3F8
:10010000F0E0808180688C93A5E3B0E0E5E3F0E067
:1001100080818F7B8C93EBE3F0E089818083A5E382
:10012000B0E0E5E3F0E0808182608C9381E090E0D4
:100130000E94E700A5E3B0E0E5E3F0E080818D7F79
:100140008C930F90CF91DF910895DF93CF930F920F
:10015000CDB7DEB7E4E3F0E08081E4E3F0E08FEFD9
:100160008083EAE3F0E08FEF8083A5E3B0E0E5E38E
:10017000F0E080818F778C930F90CF91DF9108957D
:10018000DF93CF930F92CDB7DEB7E7E3F0E08FEFC9
:100190008083E8E3F0E080EF8083E7E3F0E08FE046
:1001A0008083E6E3F0E08081803F31F4E7E3F0E034
:1001B0008FEF8083198206C0E7E3F0E08FEF808342
:1001C00081E0898389810F90CF91DF910895DF933A
:1001D000CF9300D000D0CDB7DEB79C838B83E2E510
:1001E000F0E087E38083A3E5B0E0E3E5F0E0808121
:1001F00082608C931A82198212C0E8E5F0E0808157
:10020000882F90E0817090700097B9F3E2E5F0E0FC
:1002100087E3808389819A8101969A8389834981C2
:100220005A818B819C819C01220F331FC901880F49
:10023000991F880F991F820F931F48175907E8F2DB
:100240000F900F900F900F90CF91DF910895DF9353
:10025000CF9300D000D00F92CDB7DEB78FE78B835E
:100260008AE090E00E94E7000E94C000882309F421
:10027000CBC0E8E3F0E08B818083E7E3F0E080EF40
:100280008083E6E3F0E080818A838A818F708983AE
:1002900089818F3099F48B818695282F8B81882FC7
:1002A00090E09695982F882797958795822B8B833A
:1002B0008B81873FF1F68FE78B83DBCF8A81282FF5
:1002C00030E03D832C838C819D818E3B910509F428
:1002D00072C02C813D812F3B31058CF58C819D8135
:1002E0008E37910509F46AC02C813D812F37310585
:1002F0009CF48C819D818B37910509F476C02C810B
:100300003D812D37310509F464C08C819D8187378B
:10031000910509F476C07AC02C813D812B3B3105D3
:1003200009F460C08C819D818D3B910509F44FC01B
:100330002C813D81273B310509F460C067C08C8169
:100340009D818E3D9105A1F12C813D812F3D31058F
:1003500094F48C819D818B3D910509F440C02C81E2
:100360003D812D3D310581F18C819D81873D910538
:1003700009F441C04BC02C813D812B3E310561F118
:100380008C819D818C3E910534F42C813D81273EEA
:10039000310571F13BC08C819D818D3E910589F0C5
:1003A0002C813D812E3E310589F581E08A832EC066
:1003B00085E08A832BC089E08A8328C08CE08A8309
:1003C00025C082E08A8322C086E08A831FC01A8209
:1003D0001DC08DE08A831AC083E08A8317C087E03E
:1003E0008A8314C08AE08A8311C08EE08A830EC09B
:1003F00084E08A830BC088E08A8308C08BE08A830C
:1004000005C08FE08A8302C080E18A838A810F90D1
:100410000F900F900F900F90CF91DF9108950F9351
:100420001F93DF93CF93CDB7DEB7A3970FB6F894A2
:10043000DEBF0FBECDBF0E94A50088E30E94490029
:1004400081E00E9449008FE00E94490086E00E94FE
:10045000490082E80E9449001D8A0CC08D89882FBE
:1004600090E0FC01E05AFF4F80810E9477008D8967
:100470008F5F8D8B8D89883088F381E90E944900D8
:1004800085E090E00E94E7001BA21AA219A218A220
:100490001F8E1E8E1D8E1C8E1B8E1A8E198E188E10
:1004A0001F8A1E8A8C8D9D8D009729F08E899F89C9
:1004B00001969F8B8E8B0E94C000882399F30E9427
:1004C0002701882F90E09BA38AA38AA19BA1883053
:1004D000910509F51C8A1B8A18C04B895C898B8998
:1004E0009C89880F991FFC01E759FF4F20813181BA
:1004F000CA01880F991FFC01ED56FF4F31832083FD
:100500008B899C8901969C8B8B8B8B899C898730EE
:1005100091051CF3C7CF8AA19BA18930910509F5EC
:100520001A8A198A18C049895A8989899A89880F2B
:10053000991FFC01EB57FF4F20813181CA01880FC1
:10054000991FFC01ED56FF4F3183208389899A89D9
:1005500001969A8B898B89899A89873091051CF33A
:10056000A1CF8AA19BA1009709F5188A1F8618C000
:100570004F8558898F859889880F991FFC01E95804
:10058000FF4F20813181CA01880F991FFC01ED5670
:10059000FF4F318320838F8598890196988B8F87B1
:1005A0008F859889873091051CF37CCF8AA19BA108
:1005B0008A30910509F0CCC20E942701882F90E073
:1005C0009BA38AA38AA19BA18130910559F088A1A0
:1005D00099A18130910531F08E8D9F8D81309105EB
:1005E00009F07EC01E861D866DC00E942701882FDF
:1005F00090E09BA38AA38AA19BA18C30910509F46A
:1006000067C08AA19BA18B30910509F461C08AA1C2
:100610009BA18D30910509F45BC08D859E85880F67
:10062000991F880F991FFC01EF55FF4F8081918121
:10063000009771F1A1E3B0E0E1E3F0E08081806335
:100640008C93EFE4F0E080E58083EEE4F0E089E075
:1006500080830AE410E08D859E85880F991F880F9E
:10066000991FFC01EF55FF4F808191819C0140E073
:1006700050E080E291EAA7E0B0E0BC01CD010E9429
:100680001007DA01C9010197F8019183808307C03F
:10069000A1E3B0E0E1E3F0E080818F7C8C938D8575
:1006A0009E85880F991F0196880F991FFC01EF55B1
:1006B000FF4F808191810E94E7008D859E85019684
:1006C0009E878D878D859E85853191050CF48DCF14
:1006D000A1E3B0E0E1E3F0E080818F7C8C93E2CE97
:1006E0008AA19BA18230910559F088A199A18230FD
:1006F000910531F08E8D9F8D8230910509F07EC07D
:100700001C861B866DC00E942701882F90E09BA34A
:100710008AA38AA19BA18C30910509F467C08AA1A4
:100720009BA18B30910509F461C08AA19BA18D30FA
:10073000910509F45BC08B859C85880F991F880FF4
:10074000991FFC01EB50FF4F80819181009771F15F
:10075000A1E3B0E0E1E3F0E0808180638C93EFE41B
:10076000F0E080E58083EEE4F0E089E080830AE455
:1007700010E08B859C85880F991F880F991FFC01BD
:10078000EB50FF4F808191819C0140E050E080E27E
:1007900091EAA7E0B0E0BC01CD010E941007DA01A8
:1007A000C9010197F8019183808307C0A1E3B0E0FC
:1007B000E1E3F0E080818F7C8C938B859C85880FB2
:1007C000991F0196880F991FFC01EB50FF4F808104
:1007D00091810E94E7008B859C8501969C878B8781
:1007E0008B859C85823291050CF48DCFA1E3B0E01E
:1007F000E1E3F0E080818F7C8C9354CE8AA19BA1B1
:100800008330910559F088A199A18330910531F089
:100810008E8D9F8D8330910509F07EC01A861986D2
:100820006DC00E942701882F90E09BA38AA38AA114
:100830009BA18C30910509F467C08AA19BA18B30E4
:10084000910509F461C08AA19BA18D30910509F43D
:100850005BC089859A85880F991F880F991FFC01B5
:10086000EF57FE4F80819181009771F1A1E3B0E0D5
:10087000E1E3F0E0808180638C93EFE4F0E080E5D9
:100880008083EEE4F0E089E080830AE410E089856B
:100890009A85880F991F880F991FFC01EF57FE4F0B
:1008A000808191819C0140E050E080E291EAA7E0E4
:1008B000B0E0BC01CD010E941007DA01C901019727
:1008C000F8019183808307C0A1E3B0E0E1E3F0E0A9
:1008D00080818F7C8C9389859A85880F991F0196DA
:1008E000880F991FFC01EF57FE4F808191810E9474
:1008F000E70089859A8501969A87898789859A85EF
:10090000853391050CF48DCFA1E3B0E0E1E3F0E095
:1009100080818F7C8C93C6CD8AA19BA18430910568
:1009200059F088A199A18430910531F08E8D9F8D69
:100930008430910509F07EC018861F826DC00E9428
:100940002701882F90E09BA38AA38AA19BA18C30CA
:10095000910509F467C08AA19BA18B30910509F428
:1009600061C08AA19BA18D30910509F45BC08F8184
:100970009885880F991F880F991FFC01EB5AFD4F2E
:1009800080819181009771F1A1E3B0E0E1E3F0E0B3
:10099000808180638C93EFE4F0E080E58083EEE477
:1009A000F0E089E080830AE410E08F819885880F69
:1009B000991F880F991FFC01EB5AFD4F808191818F
:1009C0009C0140E050E080E291EAA7E0B0E0BC0189
:1009D000CD010E941007DA01C9010197F801918346
:1009E000808307C0A1E3B0E0E1E3F0E080818F7C89
:1009F0008C938F819885880F991F0196880F991F76
:100A0000FC01EB5AFD4F808191810E94E7008F81AC
:100A10009885019698878F838F819885803291057C
:100A20000CF48DCFA1E3B0E0E1E3F0E080818F7CB6
:100A30008C9338CD8AA19BA18530910559F088A16E
:100A400099A18530910531F08E8D9F8D853091056E
:100A500009F0B2CD1E821D826DC00E942701882F31
:100A600090E09BA38AA38AA19BA18C30910509F4F5
:100A700067C08AA19BA18B30910509F461C08AA14E
:100A80009BA18D30910509F45BC08D819E81880FFB
:100A9000991F880F991FFC01E752FD4F80819181BA
:100AA000009771F1A1E3B0E0E1E3F0E080818063C1
:100AB0008C93EFE4F0E080E58083EEE4F0E089E001
:100AC00080830AE410E08D819E81880F991F880F32
:100AD000991FFC01E752FD4F808191819C0140E00C
:100AE00050E080E291EAA7E0B0E0BC01CD010E94B5
:100AF0001007DA01C9010197F8019183808307C0CB
:100B0000A1E3B0E0E1E3F0E080818F7C8C938D8104
:100B10009E81880F991F0196880F991FFC01E7524B
:100B2000FD4F808191810E94E7008D819E81019619
:100B30009E838D838D819E81813491050CF48DCFB0
:100B4000A1E3B0E0E1E3F0E080818F7C8C93AACC5C
:100B50008AA19BA18C30910521F4E1E3F0E01082A1
:100B6000A1CC8AA19BA18E30910569F581E090E02E
:100B70009D8F8C8F1C821B821CC08B819C81880F57
:100B8000991F880F991FFC01EE51FC4F11821082B2
:100B90008B819C81880F991F0196880F991FFC01FA
:100BA000EE51FC4F118210828B819C8101969C83B7
:100BB0008B832B813C818A8D9B8D28173907ECF222
:100BC0001B8E1A8E6FCC8AA19BA18F30910509F0E4
:100BD000EBC08A8D9B8D009709F464CC1A82198230
:100BE00061C00E942701882F90E09BA38AA38AA15D
:100BF0009BA18D30910509F45DC089819A81880F90
:100C0000991F880F991FFC01EE51FC4F8081918143
:100C1000009771F1A1E3B0E0E1E3F0E0808180634F
:100C20008C93EFE4F0E080E58083EEE4F0E089E08F
:100C300080830AE410E089819A81880F991F880FC8
:100C4000991FFC01EE51FC4F808191819C0140E095
:100C500050E080E291EAA7E0B0E0BC01CD010E9443
:100C60001007DA01C9010197F8019183808307C059
:100C7000A1E3B0E0E1E3F0E080818F7C8C93898197
:100C80009A81880F991F0196880F991FFC01EE51D8
:100C9000FC4F808191810E94E70089819A810196B1
:100CA0009A83898329813A818A8D9B8D28173907F8
:100CB0000CF497CFA1E3B0E0E1E3F0E080818F7C1A
:100CC0008C931D8E1C8EEECBA1E3B0E0E1E3F0E04F
:100CD000808180638C93EFE4F0E080E58083EEE434
:100CE000F0E089E080830AE410E08AA19BA10197EB
:100CF000880F991FFC01ED56FF4F808191819C0167
:100D000040E050E080E291EAA7E0B0E0BC01CD0114
:100D10000E941007DA01C9010197F80191838083CD
:100D20008C8D9D8D009709F43FC08A8D9B8D880F17
:100D3000991F880F991FFC01EE51FC4F1182108200
:100D4000EA8DFB8D8E899F8927E030E0B9010E94F2
:100D5000FD06CB019C01CF01880F991F0196880FDA
:100D6000991FFC01EE51FC4F318320838A8D9B8DAE
:100D7000AC014F5F5F4F8AA19BA10197880F991F1C
:100D8000FC01ED56FF4F20813181CA01880F991F68
:100D9000880F991FFC01EE51FC4F31832083888D11
:100DA000998D0296998F888F0E94C000882309F040
:100DB0008BCF8C8D9D8D0097C1F01F8A1E8A8A8DE6
:100DC0009B8D0196288D398D880F991F0196880F6C
:100DD000991FFC01EE51FC4F318320838A8D9B8D3E
:100DE00002969B8F8A8F198E188EA1E3B0E0E1E303
:100DF000F0E080818F7C8C9355CB97FB092E0726E2
:100E00000AD077FD04D027D006D000201AF47095C0
:100E100061957F4F0895F6F7909581959F4F0895BE
:100E200097FB092E05260ED057FD04D028D00AD0F6
:100E3000001C38F450954095309521953F4F4F4F09
:100E40005F4F0895F6F790958095709561957F4F67
:100E50008F4F9F4F0895AA1BBB1B51E107C0AA1FCC
:100E6000BB1FA617B70710F0A61BB70B881F991F4B
:100E70005A95A9F780959095BC01CD010895A1E2FE
:100E80001A2EAA1BBB1BFD010DC0AA1FBB1FEE1F04
:100E9000FF1FA217B307E407F50720F0A21BB30B4F
:100EA000E40BF50B661F771F881F991F1A9469F7CB
:100EB00060957095809590959B01AC01BD01CF0127
:060EC0000895F894FFCF35
:100EC6004D79207069616E6F0083009300A500AFB5
:100ED60000C400DC00F7000C024C029402BA0210B7
:100EE600037003DC03060126014A015D018801B88F
:100EF60001EE01060126014A015D018801B801EEF5
:100F0600018300F4019300F401A500F401AF00F49D
:100F160001C400F401DC00F401F700F401060190BD
:100F260001260190014A0190015D0190018801901E
:100F360001B8019001EE0190010C0290014C029063
:100F46000194029001BA029001100390017003907F
:100F560001DC039001B801EE028801FA004A01F4AF
:100F6600018801F4010C02F401B801FA008801FAC3
:100F760000B801E8034A01F4018801FA00B801FA51
:100F8600008801F4014A01FA002601FA000601FA76
:100F960000DC00FA008801FA004A01FA002601E89E
:100FA600032601EE024A01FA008801F4018801FADB
:100FB60000B801FA004A01EE022601FA000601E82D
:100FC600038A01EE024A01FA002601FA000601FA36
:100FD60000DC00FA000601FA00C400E80300000085
:100FE600009302C8009302C8000000C8009302C81C
:100FF600000000C8000B02C8009302C8000000C829
:1010060000100390010000900188019001000090FB
:10101600010B02C8000000900188019001000090B9
:10102600014A01C80000009001B801C8000000C8CC
:1010360000EE01C8000000C800D201C800B801C80F
:10104600000000C80088010A0193020A0110030A81
:10105600017003C8000000C800BA02C8001003C827
:10106600000000C8009302C8000000C8000B02C8B8
:10107600004B02C800EE01C800000090010B02C838
:10108600000000900188019001000090014A01C80B
:101096000000009001B801C8000000C800EE01C8B9
:1010A600000000C800D201C800B801C8000000C88E
:1010B6000088010A010601F4012601F4014A01F43F
:1010C600010601F4010601F4012601F4014A01F4C6
:1010D600010601F4014A01F4015D01F4018801E809
:1010E600034A01F4015D01F4018801E803880177F0
:1010F60001B8017D00880177015D017D004A01F498
:10110600010601F40188017701B8017D00880177A5
:10111600015D017D004A01F4010601F4012601F496
:1011260001C400F4010601E8032601F401C400F439
:10113600010601E80300000000B801F401EE01F425
:10114600010C02DC05EE01F4010C02E8039402E84E
:1011560003EE01B80B4A01F4014A01F401B801DCBF
:10116600058801F401B801E8030C02E8038801D000
:10117600070000E8034A01F4014A01F4015D01DCBD
:10118600054A01F4015D01F4010C02DC054A01D0B7
:10119600070000F4010C02F4010C02F4010C02F445
:1011A60001EE01DC055D01F4015D01E803EE01E8F5
:1011B60003EE01D0070000E803B801F401EE01F4E4
:1011C600010C02DC05EE01F4010C02E8039402E8CE
:1011D60003EE01D0070000E8034A01F4014A01F4D6
:1011E60001B801DC058801F401B801E8030C02E846
:1011F600038801B80B0000F4014A01F4015D01E81F
:10120600030C02F401EE01F401EE01E8030C02E81E
:10121600034C02F4014C02F4019402F4010C02E8BE
:10122600030000E8030C02E803EE01F401B801F440
:1012360001B801F401EE01E8038801E803000000AB
:021246000000A6
:00000001FF
